:020000040800F2
:1000000098180020DD010008B55800088F08000886
:10001000B15800083D060008EF7800080000000015
:10002000000000000000000000000000397300081C
:1000300041060008000000006B0200084D74000833
:10004000F7010008F7010008F70100086D700008CB
:10005000F7010008F7010008F7010008F7010008A0
:10006000F7010008F7010008F7010008F701000890
:10007000F7010008F7010008F7010008F701000880
:10008000F7010008F7010008F7010008F701000870
:10009000F7010008F7010008F7010008F701000860
:1000A000F7010008F7010008F7010008F701000850
:1000B000F7010008C9740008F7010008F7010008FB
:1000C000F7010008F7010008F7010008F701000830
:1000D000F7010008C5760008F7010008F7010008DD
:1000E000F7010008F7010008F7010008F701000810
:1000F000F7010008F7010008F7010008F701000800
:10010000F7010008F7010008F7010008F7010008EF
:10011000F7010008F7010008F7010008F7010008DF
:10012000F7010008F7010008F7010008F7010008CF
:1001300000F002F800F042F80AA090E8000C8244B7
:100140008344AAF10107DA4501D100F037F8AFF294
:10015000090EBAE80F0013F0010F18BFFB1A43F0A5
:10016000010318477CC400009CC40000103A24BF5F
:1001700078C878C1FAD8520724BF30C830C144BF0C
:1001800004680C607047000000230024002500264E
:10019000103A28BF78C1FBD8520728BF30C148BFEA
:1001A0000B607047642900F0D580782900F00E813B
:1001B000002070471FB51FBD10B510BD00F0D0F96D
:1001C0001146FFF7F7FF08F003F800F0EEF903B46B
:1001D000FFF7F2FF03BC07F0C1FE000009488047AB
:1001E00009480047FEE7FEE7FEE7FEE7FEE7FEE719
:1001F000FEE7FEE7FEE7FEE704480549054A064B31
:10020000704700006974000831010008981200204E
:10021000981800209814002098140020EFF3108004
:1002200072B6704780F310887047204C204D2560CF
:100230004FF0000484F309881E4C4FF0010525702F
:100240001D4C4FF08055256062B6FEE730B41A4C65
:100250004FF08055256030BC704730B4164C4FF0DD
:100260008055256030BC704700BF72B6EFF309803F
:1002700028B1203880E8F00F10490968086000B5FF
:100280000F4880475DF804EB0E480F490A7802706A
:100290000A480E490A680260106890E8F00F2030A2
:1002A00080F309884EF0040E62B6704720ED00E03E
:1002B0000000FFFFA600002004ED00E0AC000020DD
:1002C000556400089B0000209C000020B400002022
:1002D000704700000FB4044910B503AA029800F05B
:1002E00009F910BC5DF814FB640000202DE9F04111
:1002F0000E460446002020622046E168884730B35D
:10030000252805D0D4E901219047206A401CF2E756
:10031000E168204600278847050018D0A5F1410074
:10032000192802D820354FF4006732462946204666
:100330002760FFF737FF40B1012804D0F61D26F0F3
:1003400007060836D8E7361DD6E72846DAE7206ADA
:10035000BDE8F0812DE9F0410646002410687529BA
:10036000314616A510D0AFF30080002802DA4042D3
:1003700013A507E031688A0701D512A502E04907F5
:1003800004D511A5012401E0AFF3008000210A2269
:1003900006F1240709E0B0FBF2FCB0FBF2F302FB2C
:1003A0001C00303078541846491C0028F3D12346ED
:1003B0002A463046BDE8F04100F043B80000000096
:1003C0002D0000002B0000002000000070B5044646
:1003D0000D4621461068AFF300802188090502D53B
:1003E0000F4A7A4402E00E4A7A440E32002104F1A8
:1003F000240305E000F00F060009965D5E54491CD9
:100400000028F7D120780023000704D5702D02D0F2
:1004100009B1022311322046BDE8704000F011B846
:10042000B2C00000704770477047704710B500F0C9
:1004300073F8006810BD10B5044600F06DF8046054
:1004400010BD2DE9F0470D4699469246044600F14D
:1004500024080168880604D5E06921F010012160B4
:1004600000E00120A84201DD471B00E00027A16950
:100470007A1902EB0900081AA0612078C00602D49C
:100480002046AFF30080002608E0D4E901211AF8E5
:1004900006009047206A401C761C20624E45F4DB23
:1004A0002078C0060AD52046AFF3008006E0D4E9E4
:1004B000012130209047206A401C2062381EA7F19D
:1004C0000107F4DC07E0D4E9012118F805009047A2
:1004D000206A401C2062281EA5F10105F3DC20469D
:1004E000AFF300802078000602D50220BDE8F08737
:1004F0000120FBE7074B70B50D467B4400F015F873
:100500000446284600F024F810B14FF0FF3070BDCB
:10051000204670BD6B7C00000048704734120020FC
:1005200001694A1C02610878704700B58FB0CDE9B7
:1005300001310021059105497944CDE903101146A7
:100540006846FFF7D3FE0FB000BD0000E5FFFFFFD8
:10055000007B00F080007047004870473412002094
:100560007546FFF7F9FFAE4605006946534620F091
:100570000700854618B020B5FFF73EFEBDE82040D5
:100580004FF000064FF000074FF000084FF0000B4F
:1005900021F00701AC46ACE8C009ACE8C009ACE802
:1005A000C009ACE8C0098D46704710B50446AFF3EA
:1005B00000802046BDE81040FFF709BE08B50121C4
:1005C000082006F099FB4FF48070ADF80000102071
:1005D0008DF8030003208DF802006946044800F0FE
:1005E000BEF84FF48071024800F04DF908BD0000DC
:1005F000000C014010B5012006F08EFB002006F033
:100600008BFB10BD08B50146002000900348009008
:100610000098084400900098008808BD006C0040D5
:1006200008B500220092044A0092009A0244009207
:10063000009A116008BD0000006C004000BFFEE79A
:100640007047000051B18200A2F1C042126842F02E
:1006500001038200A2F1C042136009E08200A2F10E
:10066000C0421268034B1A408300A3F1C0431A60D2
:1006700070470000FEFF0F00D0E901121143C2686D
:100680001143026911434269114382691143C269EE
:100690001143026A1143426A1143826A1143C26ADA
:1006A0001143026B114302689200A2F1C042116033
:1006B000816808290BD101688900A1F1C04109684E
:1006C00041F0400201688900A1F1C0410A60416B1C
:1006D0000968426B526841EA0211426B926841EA32
:1006E0000221426B928941EA0241426B128A41EA3D
:1006F0000251426B127D41EA0261426B92691143E1
:100700000268521C9200A2F1C0421160C16AB1F5A8
:10071000804F1BD1816B0968826B526841EA0211DC
:10072000826B926841EA0221826B128A41EA02518D
:10073000826B127D41EA0261826B92691143026809
:100740009200A2F1C042C2F8041107E06FF07042BB
:1007500001688900A1F1C041C1F8042170472DE969
:10076000F041024600250026002000230024002737
:1007700091F803C00CF00F0591F803C00CF0100CB9
:10078000BCF1000F03D091F802C04CEA050591F8C6
:1007900000C0BCF1000F31D0146800202BE04FF0F6
:1007A000010C0CFA00F3B1F800C00CEA03069E42FB
:1007B00020D183004FF00F0C0CFA03F7BC4305FA6D
:1007C00003FC4CEA040491F803C0BCF1280F06D1E5
:1007D0004FF0010C0CFA00FCC2F814C00AE091F8CA
:1007E00003C0BCF1480F05D14FF0010C0CFA00FC1E
:1007F000C2F810C0401C0828D1D31460B1F800C062
:10080000BCF1FF0F34DD546800202EE000F1080C2D
:100810004FF0010808FA0CF3B1F800C00CEA030627
:100820009E4221D183004FF00F0C0CFA03F7BC431A
:1008300005FA03FC4CEA040491F803C0BCF1280F4C
:1008400005D100F1080C08FA0CF8C2F8148091F8F0
:1008500003C0BCF1480F07D100F1080C4FF00108AC
:1008600008FA0CF8C2F81080401C0828CED3546057
:10087000BDE8F0810246002093680B400BB10120D7
:1008800000E000207047416170470161704700BF80
:10089000FEE70146CA1701EB92729210A1EB8202A9
:1008A00092B9642091FBF0F200FB121050B94FF4A2
:1008B000C87091FBF0F200FB121008B901207047DC
:1008C0000020FCE70120FAE70020F8E708B5012145
:1008D000442006F011FA1C20ADF8000048208DF8E5
:1008E000030069460648FFF73AFF0120ADF8000013
:1008F00028208DF8030069460248FFF730FF08BD45
:10090000001801400008014010B5044614B1012050
:100910002C4908702B480078002837D010212A482D
:10092000FFF7A8FF78B108212748FFF7A3FF50B1D0
:1009300004212548FFF79EFF28B101212348FFF736
:1009400099FF012822D10A2007F088FB00201D49C9
:10095000087010211C48FFF78DFF08B9012010BD59
:1009600008211948FFF786FF08B90220F7E704219C
:100970001548FFF77FFF08B90320F0E7012113486E
:10098000FFF778FF01281BD10420E8E710210E486B
:10099000FFF770FF012813D108210B48FFF76AFF0A
:1009A00001280DD104210848FFF764FF012807D171
:1009B00001210648FFF75EFF10B9012001490870C8
:1009C0000020CCE750000020001801400008014042
:1009D00010B50446002012490880A01CC2B24FF492
:1009E000E171F02000F02AFD601CC2B24FF4E17109
:1009F000F02000F023FDE2B24FF4E171F02000F0AE
:100A00001DFD601EC2B24FF4E171F02000F016FD32
:100A1000A01EC2B24FF4E171F02000F00FFD10BD36
:100A2000520000202DE9F8431C49487807F09EFF4A
:100A3000064600221A4B07F0E9FF04460D46174907
:100A4000087807F093FF06460022164B07F0DEFFFA
:100A5000804622462B4607F0C5FC134A03C21248C3
:100A600012490CC803C907F0D1FE14D04FF6FF702D
:100A700000900E480CC8642000F01AF80020009086
:100A800009480CC8642000F013F80748D0E90010AA
:100A9000064AC2E90010BDE8F8830000E006002025
:100AA0000000E03F00003E40100000201800002041
:100AB0002DE9FF5F8CB090469946002213464046D0
:100AC000494608F0A1F87DD80022FE4B4046494631
:100AD00007F044FD8246FC4AFC4B07F097FFCDE946
:100AE0000A0107F0C5FB04460D460022F54B4046BF
:100AF000494607F033FDF44AF44BCDE90A0107F00B
:100B000085FF824607F02EFA06460F46F0491A98EE
:100B1000088000224FF080432046294607F076FFE8
:100B200082468B460C9807F021FF32463B46CDE9C2
:100B3000000107F06BFF0022E64BCDE9020108F04F
:100B400099F852465B46CDE9040107F04BFCCDE92C
:100B5000060107F0C7FE80B200224FF080430B90E1
:100B60003046394607F052FFCDE904010C9807F0F2
:100B7000FDFE22462B46CDE9000107F047FF8246E5
:100B80000022D54B07F02EFCCDE90201DDE904235C
:100B900007F028FCCDE9060107F0A4FE80B2002290
:100BA0004FF080430A902046294607F02FFF00228D
:100BB000C84BCDE9060107F015FC824607F092FE0E
:100BC00080B200E098E100224FF080430990304667
:100BD000394607F01BFF0022BF4BCDE9060107F0A5
:100BE00001FC824607F07EFE80B2089009A90EC97A
:100BF00000F0BAFB0022B94B2046294607F006FF59
:100C0000CDE904010C9807F0B1FE824632463B461E
:100C100007F0FCFE0022AF4BCDE9000108F02AF8F6
:100C2000CDE90201DDE9042307F0DCFBCDE9060193
:100C300007F058FE80B20022A84B0B903046394690
:100C400007F0E4FECDE904010C9807F08FFE224680
:100C50002B46CDE9000107F0D9FE824600229E4BCB
:100C600007F0C0FBCDE90201DDE9042307F0BAFB80
:100C7000CDE9060107F036FE80B20022974B0A90BC
:100C80002046294607F0C2FE82460022914B07F01B
:100C9000A9FBCDE9060107F025FE80B200228F4BAB
:100CA00009903046394607F0B1FE00228A4BCDE963
:100CB000060107F097FB824607F014FE80B2089009
:100CC00009A90EC900F050FB0C9807F04FFE324600
:100CD0003B46CDE9060107F099FE00227D4BCDE9A8
:100CE000080107F0C7FF824607F0FCFD80B20B90B9
:100CF0000C9807F03BFE22462B46CDE9060107F093
:100D000085FE82460022744B07F06CFBCDE908019A
:100D100007F0E8FD80B20A9002464FF4E171F0203E
:100D20000B9B00F021FB00226C4B2046294607F06C
:100D30006DFECDE904010C9807F018FE824632469C
:100D40003B4607F063FE0022624BCDE9000107F04D
:100D500091FFCDE90201DDE9042307F097FFCDE91A
:100D6000060107F0BFFD80B200225C4B0B903046BD
:100D7000394607F04BFECDE904010C9807F0F6FD6B
:100D800022462B46CDE9000107F040FE82460022B4
:100D9000514B07F027FBCDE90201DDE9042307F001
:100DA00075FFCDE9060107F09DFD80B200224B4B97
:100DB0000A902046294607F029FE0022454BCDE93E
:100DC000060107F057FF824607F08CFD80B2002233
:100DD000424B09903046394607F018FE8246002201
:100DE0003D4B07F047FFCDE9060107F07BFD80B2E0
:100DF000089009A90EC900F0B7FA00224FF080430D
:100E00002046294607F002FECDE904010C9807F0C0
:100E1000ADFD824632463B4607F0F8FD00222D4BE1
:100E2000CDE9000107F026FFCDE90201DDE9042349
:100E300007F02CFFCDE9060107F054FD80B2002237
:100E40004FF080430B903046394607F0DFFDCDE987
:100E500004010C9807F08AFD824622462B4607F0D3
:100E6000D5FD00221C4BCDE9000107F0BBFACDE90E
:100E70000201DDE9042307F009FFCDE9060107F0CF
:100E800031FD80B200224FF080430A90204629466F
:100E900007F0BCFD00220F4BCDE9060107F0EAFE8A
:100EA000824607F01FFD80B200224FF08043099078
:100EB0003046394607F0AAFD0022074BCDE906016E
:100EC0000EE00000008066401F85EB51B81E09400F
:100ED0005200002000207C4000006E400000F03FE7
:100EE00007F0C8FE824607F0FDFC80B2089009A911
:100EF0000EC900F039FA00BF10B0BDE8F09F000045
:100F00002DE9F8431C49887807F030FD06461B4A56
:100F10001B4B07F07BFD04460D461749487807F048
:100F200025FD06460022174B07F070FD804622463D
:100F30002B4607F057FA144A03C2134813490CC84A
:100F400003C907F063FC14D04FF6FF7000900F4800
:100F50000CC89620FFF7ACFD002000900A480CC892
:100F60009620FFF7A5FD0848D0E90010074AC2E91E
:100F70000010BDE8F8830000E00600209A999999D6
:100F80009999B93F00001840200000202800002057
:100F900010B50748007830B1AF20FFF719FD0020E9
:100FA0000349087003E0FFF73DFDFFF7A9FF10BDFF
:100FB0003000002070B50446002617480588408898
:100FC00045431548808846F60401884216D11248E8
:100FD0008079012812D100200F4988712A20488188
:100FE0002B2088810021084604F004FA01200A49D8
:100FF00088712B2048812A20888103E0002108463F
:1010000004F0F8F904F01CFC002602E00348048018
:10101000761CAE42FAD370BDD20600200008006CE8
:1010200010B55D480078002845D01F205B49088036
:1010300000230B225021902004F000FB00230B2200
:1010400050214FF4907004F0F9FA00230A22902105
:10105000084604F0F3FA00230A229021480004F025
:10106000EDFA022300225021302004F06CFB022311
:1010700000225021C02004F066FB022300225021F0
:101080004FF4A87004F05FFB02230022902130206F
:1010900004F059FB022300229021C02004F053FBEE
:1010A0000223002290214FF4A87004F04CFB002092
:1010B000394908706EE01F20384908803848808818
:1010C0003849898888420CD036488088642190FB52
:1010D000F1F201FB1204022322465021302004F0D9
:1010E00032FB2F4880792F498979884206D02D48D4
:1010F000827902235021C02004F025FB2848C079C2
:101100002849C979884207D02648C279022350214C
:101110004FF4A87004F017FB2148007821490978A2
:10112000884206D01F48027802239021302004F024
:101130000AFB1B4840781B494978884206D0194869
:10114000427802239021C02004F0FDFA14488078F0
:1011500014498978884207D0124882780223902166
:101160004FF4A87004F0EFFA0E4800780C490870AC
:101170000C48407848700B4880788870094880880F
:1011800088800848807988710648C079C871054808
:10119000007A087210BD00000900002052000020F3
:1011A000C8060020E006002010B50446002C66D1D9
:1011B0006C498871F02008804FF4A0704880084680
:1011C000808849F2413188420BD06648808846F6D3
:1011D0000401884205D06348808845F21031884276
:1011E0001AD12C205F4908812A2048812B20888130
:1011F0000846808846F60401884205D05948808810
:1012000045F21031884206D14FF4A070554908804C
:101210004FF4F0704880A1E05248808845F21051A8
:10122000884210D14FF430504E4908814FF4285075
:1012300048814FF42C5088814FF4F07008804FF4AF
:10124000487048808AE04748808841F663118842A8
:101250000DD12C20434908812B2048812A208881E8
:101260004FF4F07008804FF44870488076E02220F8
:101270003C49088120204881212088816EE001209E
:10128000384988714FF4A0700880F02048800846E3
:10129000808849F24131884205D03248808845F241
:1012A0001031884207D12C202E4908812A204881FC
:1012B0002B2088813FE02B48808846F60401884235
:1012C00007D12C20274908812B2048812A2088819A
:1012D00031E02448808845F21051884210D14FF403
:1012E0003050204908814FF4285048814FF42C5049
:1012F00088814FF4487008804FF4F07048801AE0FD
:101300001848808841F6631188420DD12C20154978
:1013100008812A2048812B2088814FF4487008805A
:101320004FF4F070488006E022200E490881212009
:101330004881202088810B48808846F60401884235
:1013400005D00848808845F21031884206D14FF414
:10135000F070044908804FF4A0704880002003F02A
:10136000D3FE10BDD20600202DE9FF4F84B0814688
:101370008A460020039002900698A0EB0905079882
:10138000A0EB0A06CDF80490CDF800A0002D01DDF9
:10139000012705E00DB9002702E04FF0FF376D424D
:1013A000002E02DD4FF0010806E016B94FF00008EC
:1013B00002E04FF0FF387642B54201DD2C4600E0F6
:1013C00034464FF0000B21E0009A91B2019A90B29E
:1013D00000F022F8039828440390029830440290C9
:1013E0000398A04205DD0398001B03900198384440
:1013F00001900298A04205DD0298001B029000981F
:10140000404400900BF101001FFA80FB601C8345F3
:10141000DADD08B0BDE8F08F30B504460D46294648
:10142000204603F0E7FF04F00BFA02480088024967
:10143000088030BD520000200008006C2DE9F04308
:1014400006460F469046002445460320A0EB480977
:101450003CE07A1B91B2321990B2FFF7DDFF3A1BE4
:1014600091B2721990B2FFF7D7FF3A1991B272197F
:1014700090B2FFF7D1FF7A1991B2321990B2FFF70B
:10148000CBFF7A1991B2321B90B2FFF7C5FF3A1920
:1014900091B2721B90B2FFF7BFFF7A1B91B2321B61
:1014A00090B2FFF7B9FF3A1B91B2721B90B2FFF7EF
:1014B000B3FF641CB9F1000F03DAA000801D814462
:1014C00004E0601B80000A3081446D1EAC42C0DD28
:1014D000BDE8F08330B503460C4615465A4880886F
:1014E00049F24131884205D05748808845F2103191
:1014F000884214D15449488904F09CF9181204F028
:1015000093F9D8B204F090F94F49888904F092F920
:10151000201204F089F9E0B204F086F98CE04A4820
:10152000808845F21051884220D14749488904F00B
:1015300081F9181204F078F943494989491C88B2A5
:1015400004F078F9D8B204F06FF93F49888904F0C3
:1015500071F9201204F068F93B498989491C88B265
:1015600004F068F9E0B204F05FF965E0364880887D
:1015700041F66311884228D13348807920B9324836
:101580000088401EC01A83B22F49488904F052F9DE
:10159000181204F049F9D8B204F046F9181204F010
:1015A00043F9D8B204F040F92749888904F042F998
:1015B000201204F039F9E0B204F036F9201204F0F8
:1015C00033F9E0B204F030F936E01F48808846F67F
:1015D000040188421DD11C488079012804D11A4891
:1015E0000088401EC01A83B21749488904F022F9C6
:1015F000181204F019F9D8B204F016F912498889C2
:1016000004F018F9201204F00FF9E0B204F00CF91C
:1016100012E00D488079012804D10B480088401E53
:10162000C01A83B208494889194604F013F90649DB
:101630008889214604F00EF903480089034908808F
:10164000881C058030BD0000D2060020FE07006C1B
:1016500000B59FB00121080205F02EFB01214FF4D7
:10166000B47005F049FB0120ADF8780010208DF82A
:101670007B0003208DF87A001EA9FE48FFF76FF863
:101680004CF23370ADF8780018208DF87B00032001
:101690008DF87A001EA9F848FFF761F84FF68070C0
:1016A000ADF8780018208DF87B0003208DF87A00C3
:1016B0001EA9F248FFF753F841F20100ADF8780097
:1016C00018208DF87B0003208DF87A001EA9EC48C5
:1016D000FFF745F801200890002009900F200A909C
:1016E00000200B900C900D900E9001900290032022
:1016F00003900020049005900690079006200F901C
:10170000002010901190102012900020139015903E
:101710001490169017904FF4805018900020199054
:101720004FF480401A9000201B9008A81C9001A83C
:101730001D900FA8FEF7A0FF01210620FEF782FFF3
:10174000322006F08BFC002003F052FBCD4988804C
:1017500008468088FF280ADB084680884FF6FF711C
:10176000884204D0C7488088B0F5134F7ED1D3207B
:1017700004F060F803F032FBC249888003F02EFBCE
:10178000C049888003F02AFBBE49888008468088CB
:101790004FF6FF7101EA0020BA49888003F01EFB72
:1017A000B84989880843B74988800846808849F243
:1017B000413188425AD0BF2004F03CF803F00EFBC0
:1017C000B049888003F00AFBAE49888003F006FB2D
:1017D000AC49888003F002FBAA49888008468088CB
:1017E0004FF6FF7101EA0020A649888003F0F6FA5F
:1017F000A44989880843A34988800846808846F61A
:10180000040188427AD0D42004F014F803F0E6FAF8
:101810009C49888003F0E2FA9A49888003F0DEFA56
:1018200098498880084680884FF6FF7101EA0020B9
:101830009449888003F0D2FA9249898808439149F3
:1018400088800846808845F21031884256D04FF48F
:101850005A4003F0EFFF03F0C1FA8A4988804FF441
:101860005B4003F0E7FF03F0B9FA00E046E085498A
:101870008880084680884FF6FF7101EA0020814980
:1018800088804FF45C4003F0D5FF03F0A7FA7D4950
:10189000898808437B49888008468088B0F5004FD6
:1018A00002D145F2105088807648808845F2105168
:1018B000884223D0A12003F0BDFF03F08FFA7149C5
:1018C000888003F08BFA6F498880084680884FF63D
:1018D000FF7101EA00206B49888003F07FFA6949B3
:1018E00089880843674988800846808845F2617185
:1018F000884203D141F6631062498880614881883B
:1019000061A0FEF7E7FC5F48808849F241318842D8
:101910007ED1CF2003F08EFF002003F085FFC12091
:1019200003F082FF302003F07FFFED2003F082FF01
:10193000642003F079FF032003F076FF122003F008
:1019400073FF812003F070FFE82003F073FF852010
:1019500003F06AFF102003F067FF7A2003F064FFB2
:10196000CB2003F067FF392003F05EFF2C2003F04B
:101970005BFF002003F058FF342003F055FF0220E6
:1019800003F052FFF72003F055FF202003F04CFF37
:10199000EA2003F04FFF002003F046FF002003F091
:1019A00043FFC02003F046FF1B2003F03DFFC12092
:1019B00003F040FF012003F037FFC52003F03AFF9A
:1019C000302003F031FF302003F02EFFC72003F05A
:1019D00031FFB72003F028FF362003F02BFF48200B
:1019E00003F022FF3A2003F025FF552003F01CFFEF
:1019F000B12003F01FFF002003F016FF1A2003F0B0
:101A000013FFB62003F016FF0A2003F00DFF00E0DD
:101A1000AAE0A22003F008FFF22003F00BFF002051
:101A200003F002FF262003F005FF012003F0FCFE77
:101A3000E02003F0FFFE0F2003F0F6FE2A2003F063
:101A4000F3FE282003F0F0FE082003F0EDFE0E2048
:101A500003F0EAFE082003F0E7FE542003F0E4FE62
:101A6000A92003F0E1FE432003F0DEFE0A2003F08C
:101A7000DBFE11E0000C01400014014000180140A1
:101A800000200140D2060020204C43442049443A23
:101A900025780D0A000000000F2003F0C5FE00208D
:101AA00003F0C2FE002003F0BFFE002003F0BCFEE6
:101AB000002003F0B9FEE12003F0BCFE002003F09B
:101AC000B3FE152003F0B0FE172003F0ADFE072093
:101AD00003F0AAFE112003F0A7FE062003F0A4FEE7
:101AE0002B2003F0A1FE562003F09EFE3C2003F0C5
:101AF0009BFE052003F098FE102003F095FE0F20BA
:101B000003F092FE3F2003F08FFE3F2003F08CFE97
:101B10000F2003F089FE2B2003F08CFE002003F041
:101B200083FE002003F080FE012003F07DFE3F20B5
:101B300003F07AFE2A2003F07DFE002003F074FEFD
:101B4000002003F071FE002003F06EFEEF2003F092
:101B50006BFE112003F06EFE782006F07FFA29203C
:101B600003F068FE03F01DB9FE48808846F60401C4
:101B700088427CD1112003F05DFE142006F06EFA3D
:101B8000D02003F057FE072003F04EFE422003F062
:101B90004BFE1D2003F048FED12003F04BFE002039
:101BA00003F042FE1A2003F03FFE092003F03CFE42
:101BB000D22003F03FFE012003F036FE222003F086
:101BC00033FEC02003F036FE102003F02DFE3B2034
:101BD00003F02AFE002003F027FE022003F024FE7B
:101BE000112003F021FEC52003F024FE032003F0A2
:101BF0001BFEC82003F01EFE002003F015FE25206A
:101C000003F012FE212003F00FFE052003F00CFE6E
:101C1000002003F009FE0A2003F006FE652003F011
:101C200003FE252003F000FE772003F0FDFD502089
:101C300003F0FAFD0F2003F0F7FD002003F0F4FDA0
:101C4000F82003F0F7FD012003F0EEFDFE2003F085
:101C5000F1FD002003F0E8FD022003F0E5FD202067
:101C600003F0E8FD362003F0E5FD082000E02CE05D
:101C700003F0DAFD3A2003F0DDFD552003F0D4FD3A
:101C80002B2003F0D7FD002003F0CEFD002003F051
:101C9000CBFD012003F0C8FD3F2003F0C5FD2A2045
:101CA00003F0C8FD002003F0BFFD002003F0BCFDE1
:101CB000012003F0B9FDDF2003F0B6FD782006F027
:101CC000CDF9292003F0B6FD4CE7A648808845F2FF
:101CD0001031884240F07C87ED2003F0ABFD0120FD
:101CE00003F0A2FDFE2003F09FFDEE2003F0A2FD15
:101CF000DE2003F099FD212003F096FDF12003F092
:101D000099FD012003F090FDDF2003F093FD1020EA
:101D100003F08AFDC42003F08DFD8F2003F084FDC5
:101D2000C62003F087FD002003F07EFDE22003F0D3
:101D30007BFDE22003F078FDE22003F075FDBF207B
:101D400003F078FDAA2003F06FFDB02003F072FDD0
:101D50000D2003F069FD002003F066FD0D2003F067
:101D600063FD002003F060FD112003F05DFD002005
:101D700003F05AFD192003F057FD002003F054FD35
:101D8000212003F051FD002003F04EFD2D2003F033
:101D90004BFD002003F048FD3D2003F045FD0020F1
:101DA00003F042FD5D2003F03FFD002003F03CFD09
:101DB0005D2003F039FD002003F036FDB12003F073
:101DC00039FD802003F030FD002003F02DFD8B2035
:101DD00003F02AFD002003F027FD962003F024FDE8
:101DE000002003F021FDB22003F024FD002003F0C9
:101DF0001BFD002003F018FD022003F015FD00205C
:101E000003F012FD032003F00FFD002003F00CFD92
:101E1000B32003F00FFD002003F006FD002003F0C7
:101E200003FD002003F000FD002003F0FDFC002076
:101E300003F0FAFC002003F0F7FC002003F0F4FCB0
:101E4000002003F0F1FC002003F0EEFC002003F082
:101E5000EBFC002003F0E8FC002003F0E5FC002090
:101E600003F0E2FC002003F0DFFC002003F0DCFCC8
:101E7000002003F0D9FC002003F0D6FC002003F082
:101E8000D3FC002003F0D0FC002003F0CDFC0020A8
:101E900003F0CAFC002003F0C7FC002003F0C4FCE0
:101EA000002003F0C1FCB42003F0C4FC8B2003F03D
:101EB000BBFC002003F0B8FC962003F0B5FC00202A
:101EC00003F0B2FCA12003F0AFFC002003F0ACFC57
:101ED000B52003F0AFFC022003F0A6FC002003F0C5
:101EE000A3FC032003F0A0FC002003F09DFC0420D1
:101EF00003F09AFC002003F097FCB62003F09AFC54
:101F0000002003F091FC002003F08EFCB72003F0CA
:101F100091FC002003F088FC002003F085FC3F20AA
:101F200003F082FC002003F07FFC5E2003F07CFCC9
:101F3000002003F079FC642003F076FC002003F01D
:101F400073FC8C2003F070FC002003F06DFCAC20CF
:101F500003F06AFC002003F067FCDC2003F064FC63
:101F6000002001E0D206002003F05EFC702003F0A8
:101F70005BFC002003F058FC902003F055FC00208F
:101F800003F052FCEB2003F04FFC002003F04CFC6C
:101F9000DC2003F049FC002003F046FCB82003F0ED
:101FA00049FC002003F040FC002003F03DFC002031
:101FB00003F03AFC002003F037FC002003F034FC6F
:101FC000002003F031FC002003F02EFC002003F081
:101FD0002BFCBA2003F02EFC242003F025FC00206B
:101FE00003F022FC002003F01FFC002003F01CFC87
:101FF000C12003F01FFC202003F016FC002003F09A
:1020000013FC542003F010FC002003F00DFCFF2013
:1020100003F00AFC002003F007FCC22003F00AFCD6
:102020000A2003F001FC002003F0FEFB042003F073
:10203000FBFB002003F0F8FBC32003F0FBFB3C207C
:1020400003F0F2FB002003F0EFFB3A2003F0ECFB7F
:10205000002003F0E9FB392003F0E6FB002003F049
:10206000E3FB372003F0E0FB002003F0DDFB3C2026
:1020700003F0DAFB002003F0D7FB362003F0D4FB9B
:10208000002003F0D1FB322003F0CEFB002003F050
:10209000CBFB2F2003F0C8FB002003F0C5FB2C2056
:1020A00003F0C2FB002003F0BFFB292003F0BCFBC0
:1020B000002003F0B9FB262003F0B6FB002003F05C
:1020C000B3FB242003F0B0FB002003F0ADFB242081
:1020D00003F0AAFB002003F0A7FB232003F0A4FBDE
:1020E000002003F0A1FB3C2003F09EFB002003F046
:1020F0009BFB362003F098FB002003F095FB322079
:1021000003F092FB002003F08FFB2F2003F08CFBE9
:10211000002003F089FB2C2003F086FB002003F055
:1021200083FB292003F080FB002003F07DFB2620A9
:1021300003F07AFB002003F077FB242003F074FB0C
:10214000002003F071FB242003F06EFB002003F05D
:102150006BFB232003F068FB002003F065FBC42029
:1021600003F068FB622003F05FFB002003F05CFBE0
:10217000052003F059FB002003F056FB842003F0F8
:1021800053FB002003F050FBF02003F04DFB002038
:1021900003F04AFB182003F047FB002003F044FB48
:1021A000A42003F041FB002003F03EFB182003F0C5
:1021B0003BFB002003F038FB502003F035FB0020F0
:1021C00003F032FB0C2003F02FFB002003F02CFB6C
:1021D000172003F029FB002003F026FB952003F0D5
:1021E00023FB002003F020FBF32003F01DFB002065
:1021F00003F01AFBE62003F017FB002003F014FBAA
:10220000C52003F017FB322003F00EFB002003F083
:102210000BFB442003F008FB002003F005FB6520C6
:1022200003F002FB002003F0FFFA762003F0FCFA33
:10223000002003F0F9FA882003F0F6FA002003F0FA
:10224000F3FAC62003F0F6FA202003F0EDFA00209E
:1022500003F0EAFA172003F0E7FA002003F0E4FAAB
:10226000012003F0E1FA002003F0DEFAC72003F0BA
:10227000E1FA002003F0D8FA002003F0D5FA00209C
:1022800003F0D2FA002003F0CFFAC82003F0D2FA0C
:10229000002003F0C9FA002003F0C6FA002003F082
:1022A000C3FA002003F0C0FAC92003F0C3FA0020EB
:1022B00003F0BAFA002003F0B7FA002003F0B4FAF2
:1022C000002003F0B1FA002003F0AEFA002003F082
:1022D000ABFA002003F0A8FA002003F0A5FA0020D2
:1022E00003F0A2FA002003F09FFA002003F09CFA0A
:1022F000002003F099FA002003F096FA002003F082
:1023000093FA002003F090FA002003F08DFAE02009
:1023100003F090FA162003F087FA002003F084FA05
:102320001C2003F081FA002003F07EFA212003F044
:102330007BFA002003F078FA362003F075FA0020CB
:1023400003F072FA462003F06FFA002003F06CFAF3
:10235000522003F069FA002003F066FA642003F0CB
:1023600063FA002003F060FA7A2003F05DFA00209F
:1023700003F05AFA8B2003F057FA002003F054FAC6
:10238000992003F051FA002003F04EFAA82003F040
:102390004BFA002003F048FAB92003F045FA002078
:1023A00003F042FAC42003F03FFA002003F03CFAA5
:1023B000CA2003F039FA002003F036FAD22003F0E5
:1023C00033FA002003F030FAD92003F02DFA002070
:1023D00003F02AFAE02003F027FA002003F024FAA1
:1023E000F32003F021FA002003F01EFAE12003F0AD
:1023F00021FA162003F018FA002003F015FA1C2029
:1024000003F012FA002003F00FFA222003F00CFA76
:10241000002003F009FA362003F006FA002003F04A
:1024200003FA452003F000FA002003F0FDF95220E2
:1024300003F0FAF9002003F0F7F9642003F0F4F94F
:10244000002003F0F1F97A2003F0EEF9002003F008
:10245000EBF98B2003F0E8F9002003F0E5F999206F
:1024600003F0E2F9002003F0DFF9A82003F0DCF923
:10247000002003F0D9F9B92003F0D6F9002003F0C9
:10248000D3F9C42003F0D0F9002003F0CDF9CA201D
:1024900003F0CAF9002003F0C7F9D22003F0C4F911
:1024A000002003F0C1F9D82003F0BEF9002003F0AA
:1024B000BBF9E02003F0B8F9002003F0B5F9F320F0
:1024C00003F0B2F9002003F0AFF9E22003F0B2F913
:1024D000052003F0A9F9002003F0A6F90B2003F072
:1024E000A3F9002003F0A0F91B2003F09DF90020C0
:1024F00003F09AF9342003F097F9002003F094F9DF
:10250000442003F091F9002003F08EF94F2003F0EE
:102510008BF9002003F088F9612003F085F9002091
:1025200003F082F9792003F07FF9002003F07CF9B1
:10253000882003F079F9002003F076F9972003F062
:1025400073F9002003F070F9A62003F06DF9002064
:1025500003F06AF9B72003F067F9002003F064F98B
:10256000C22003F061F9002003F05EF9C72003F0F8
:102570005BF9002003F058F9D12003F055F9002051
:1025800003F052F9D62003F04FF9002003F04CF984
:10259000DD2003F049F9002003F046F9F32003F0B1
:1025A00043F9002003F040F9E32003F043F905204C
:1025B00003F03AF9002003F037F90A2003F034F968
:1025C000002003F031F91C2003F02EF9002003F065
:1025D0002BF9332003F028F9002003F025F94420DB
:1025E00003F022F9002003F01FF9502003F01CF93A
:1025F000002003F019F9622003F016F9002003F01F
:1026000013F9782003F010F9002003F00DF9882069
:1026100003F00AF9002003F007F9972003F004F90A
:10262000002003F001F9A62003F0FEF8002003F0DB
:10263000FBF8B72003F0F8F8002003F0F5F8C2200B
:1026400003F0F2F8002003F0EFF8C72003F0ECF8F5
:10265000002003F0E9F8D12003F0E6F8002003F0B1
:10266000E3F8D52003F0E0F8002003F0DDF8DD20EA
:1026700003F0DAF8002003F0D7F8F32003F0D4F8E1
:10268000002003F0D1F8E42003F0D4F8012003F097
:10269000CBF8002003F0C8F8012003F0C5F80020B3
:1026A00003F0C2F8022003F0BFF8002003F0BCF8EA
:1026B0002A2003F0B9F8002003F0B6F83C2003F01C
:1026C000B3F8002003F0B0F84B2003F0ADF8002081
:1026D00003F0AAF85D2003F0A7F8002003F0A4F8A7
:1026E000742003F0A1F8002003F09EF8842003F08A
:1026F0009BF8002003F098F8932003F095F8002051
:1027000003F092F8A22003F08FF8002003F08CF879
:10271000B32003F089F8002003F086F8BE2003F010
:1027200083F8002003F080F8C42003F07DF8002037
:1027300003F07AF8CD2003F077F8002003F074F866
:10274000D32003F071F8002003F06EF8DD2003F0D1
:102750006BF8002003F068F8F32003F065F8002020
:1027600003F062F8E52003F065F8002003F05CF860
:10277000002003F059F8002003F056F8002003F081
:1027800053F8022003F050F8002003F04DF8292000
:1027900003F04AF8002003F047F83C2003F044F827
:1027A000002003F041F84B2003F03EF8002003F036
:1027B0003BF85D2003F038F8002003F035F8742072
:1027C00003F032F8002003F02FF8842003F02CF8F7
:1027D000002003F029F8932003F026F8002003F0EE
:1027E00023F8A22003F020F8002003F01DF8B32006
:1027F00003F01AF8002003F017F8BE2003F014F8D5
:10280000002003F011F8C42003F00EF8002003F0BC
:102810000BF8CD2003F008F8002003F005F8D320D2
:1028200003F002F8002002F0FFFFDC2002F0FCFFC2
:10283000002002F0F9FFF32002F0F6FF002002F082
:10284000F3FFE62002F0F6FF112002F0EDFF00207A
:1028500002F0EAFF342002F0E7FF002002F0E4FF7C
:10286000562002F0E1FF002002F0DEFF762002F0A9
:10287000DBFF002002F0D8FF772002F0D5FF002018
:1028800002F0D2FF662002F0CFFF002002F0CCFF62
:10289000882002F0C9FF002002F0C6FF992002F054
:1028A000C3FF002002F0C0FFBB2002F0BDFF0020EC
:1028B00002F0BAFF992002F0B7FF002002F0B4FF47
:1028C000662002F0B1FF002002F0AEFF552002F0BA
:1028D000ABFF002002F0A8FF552002F0A5FF00206A
:1028E00002F0A2FF452002F09FFF002002F09CFFB3
:1028F000432002F099FF002002F096FF442002F0EE
:1029000093FF002002F090FFE72002F093FF3220B7
:1029100002F08AFF002002F087FF552002F084FFBA
:10292000002002F081FF762002F07EFF002002F0FE
:102930007BFF662002F078FF002002F075FF672021
:1029400002F072FF002002F06FFF672002F06CFFC0
:10295000002002F069FF872002F066FF002002F0ED
:1029600063FF992002F060FF002002F05DFFBB20B2
:1029700002F05AFF002002F057FF992002F054FFA6
:10298000002002F051FF772002F04EFF002002F0FD
:102990004BFF442002F048FF002002F045FF562084
:1029A00002F042FF002002F03FFF232002F03CFF34
:1029B000002002F039FF332002F036FF002002F041
:1029C00033FF452002F030FF002002F02DFFE82009
:1029D00002F030FF002002F027FF002002F024FF69
:1029E000992002F021FF002002F01EFF872002F054
:1029F0001BFF002002F018FF882002F015FF0020C6
:102A000002F012FF772002F00FFF002002F00CFF0F
:102A1000662002F009FF002002F006FF882002F085
:102A200003FF002002F000FFAA2002F0FDFE0020BC
:102A300002F0FAFEBB2002F0F7FE002002F0F4FEE6
:102A4000992002F0F1FE002002F0EEFE662002F076
:102A5000EBFE002002F0E8FE552002F0E5FE00202B
:102A600002F0E2FE552002F0DFFE002002F0DCFE64
:102A7000442002F0D9FE002002F0D6FE442002F0ED
:102A8000D3FE002002F0D0FE552002F0CDFE002043
:102A900002F0CAFEE92002F0CDFEAA2002F0C4FE38
:102AA000002002F0C1FE002002F0BEFE002002F075
:102AB000BBFE002002F0BEFEAA2002F0B5FECF2031
:102AC00002F0B8FE002002F0AFFE002002F0ACFEE3
:102AD000002002F0A9FE002002F0A6FE002002F075
:102AE000A3FE002002F0A0FE002002F09DFE0020C8
:102AF00002F09AFE002002F097FE002002F094FE01
:102B0000002002F091FE002002F08EFE002002F074
:102B10008BFE002002F088FE002002F085FE0020DF
:102B200002F082FE002002F07FFEF02002F082FE22
:102B3000002002F079FE502002F076FE002002F024
:102B400073FE002002F070FE002002F06DFEF32004
:102B500002F070FE002002F067FEF92002F06AFE2B
:102B6000062002F061FE102002F05EFE292002F035
:102B70005BFE002002F058FE3A2002F05BFE55207A
:102B800002F052FE112002F055FE642005F066FAB4
:102B9000292002F04FFE352002F04CFE002002F00A
:102BA00043FE512002F046FEFF2002F03DFE53207E
:102BB00002F040FE2C2002F037FE552002F03AFED3
:102BC000822002F031FE2C2002F034FE02F0E9B83F
:102BD000FE48808845F2105188427DD155214FF43E
:102BE000704002F037FEAA214FF2010002F032FEDF
:102BF00052214FF2020002F02DFE08214FF2030095
:102C000002F028FE01214FF2040002F023FE0D2104
:102C10004FF4304002F01EFE0D214BF2010002F095
:102C200019FE0D214BF2020002F014FE34214FF484
:102C3000364002F00FFE34214BF2016002F00AFE32
:102C400034214BF2026002F005FE0D214FF43140B9
:102C500002F000FE0D214BF2011002F0FBFD0D21F0
:102C60004BF2021002F0F6FD34214FF4374002F02F
:102C7000F1FD34214BF2017002F0ECFD34214BF2F6
:102C8000027002F0E7FD00214FF4324002F0E2FD55
:102C900000214BF2012002F0DDFD00214BF2022069
:102CA00002F0D8FD24214FF4384002F0D3FD242156
:102CB0004BF6010002F0CEFD24214BF6020002F09B
:102CC000C9FD01214FF43F4002F0C4FD0F214FF434
:102CD000334002F0BFFD00E0FDE30F214BF2013075
:102CE00002F0B8FD0F214BF2023002F0B3FD3421A7
:102CF0004FF4394002F0AEFD34214BF6011002F0E2
:102D0000A9FD34214BF6021002F0A4FD08214FF476
:102D1000354002F09FFD08214BF2015002F09AFD70
:102D200008214BF2025002F095FD03214FF442407E
:102D300002F090FD24214FF43A4002F08BFD242153
:102D40004BF6012002F086FD24214BF6022002F012
:102D500081FD00214FF43C4002F07CFD78214BF6D0
:102D6000014002F077FD00214BF6024002F072FDB7
:102D700000214FF43D4002F06DFD78214BF60150EB
:102D800002F068FD00214BF6025002F063FD0021C5
:102D90004FF43E4002F05EFD64214BF6016002F00C
:102DA00059FD00214FF4514002F054FD33214DF202
:102DB000011002F04FFD00214DF2021002F04AFD19
:102DC00034214DF2031002F045FD00214DF20410B4
:102DD00002F040FD3A214DF2051002F03BFD0021CA
:102DE0004DF2061002F036FD4A214DF2071002F0B6
:102DF00031FD00214DF2081002F02CFD5C214DF256
:102E0000091002F027FD00214DF20A1002F022FD08
:102E100081214DF20B1002F01DFD00214DF20C102E
:102E200002F018FDA6214DF20D1002F013FD002155
:102E30004DF20E1002F00EFDE5214DF20F1002F0E2
:102E400009FD01214DF2101002F004FD13214DF295
:102E5000111002F0FFFC01214DF2121002F0FAFCF9
:102E600054214DF2131002F0F5FC01214DF2141023
:102E700002F0F0FC82214DF2151002F0EBFC012172
:102E80004DF2161002F0E6FCCA214DF2171002F0C6
:102E9000E1FC02214DF2181002F0DCFC00214DF2A1
:102EA000191002F0D7FC02214DF21A1002F0D2FCE8
:102EB00001214DF21B1002F0CDFC02214DF21C103D
:102EC00002F0C8FC34214DF21D1002F0C3FC0221B7
:102ED0004DF21E1002F0BEFC67214DF21F1002F0F1
:102EE000B9FC02214DF2201002F0B4FC84214DF215
:102EF000211002F0AFFC02214DF2221002F0AAFCD8
:102F0000A4214DF2231002F0A5FC02214DF2241061
:102F100002F0A0FCB7214DF2251002F09BFC02212B
:102F20004DF2261002F096FCCF214DF2271002F050
:102F300091FC02214DF2281002F08CFCDE214DF2B2
:102F4000291002F087FC02214DF22A1002F082FCC7
:102F5000F2214DF22B1002F07DFC02214DF22C10DB
:102F600002F078FCFE214DF22D1002F073FC0321DB
:102F70004DF22E1002F06EFC10214DF22F1002F0D7
:102F800069FC03214DF2301002F064FC33214DF254
:102F9000311002F05FFC03214DF2321002F05AFCB6
:102FA0006D214DF2331002F055FC00214FF45240D8
:102FB00002F050FC33214DF2012002F04BFC0021C5
:102FC0004DF2022002F046FC342101E0D20600203E
:102FD0004DF2032002F03EFC00214DF2042002F0ED
:102FE00039FC3A214DF2052002F034FC00214DF26B
:102FF000062002F02FFC4A214DF2072002F02AFCA5
:1030000000214DF2082002F025FC5C214DF2092040
:1030100002F020FC00214DF20A2002F01BFC81216D
:103020004DF20B2002F016FC00214DF20C2002F0B4
:1030300011FCA6214DF20D2002F00CFC00214DF2F6
:103040000E2002F007FCE5214DF20F2002F002FCF9
:1030500001214DF2102002F0FDFB13214DF2112051
:1030600002F0F8FB01214DF2122002F0F3FB542193
:103070004DF2132002F0EEFB01214DF2142002F07C
:10308000E9FB82214DF2152002F0E4FB01214DF213
:10309000162002F0DFFBCA214DF2172002F0DAFB06
:1030A00002214DF2182002F0D5FB00214DF219202B
:1030B00002F0D0FB02214DF21A2002F0CBFB0121DD
:1030C0004DF21B2002F0C6FB02214DF21C2002F043
:1030D000C1FB34214DF21D2002F0BCFB02214DF258
:1030E0001E2002F0B7FB67214DF21F2002F0B2FB59
:1030F00002214DF2202002F0ADFB84214DF221206F
:1031000002F0A8FB02214DF2222002F0A3FBA42131
:103110004DF2232002F09EFB02214DF2242002F00A
:1031200099FBB7214DF2252002F094FB02214DF2CC
:10313000262002F08FFBCF214DF2272002F08AFBE0
:1031400002214DF2282002F085FBDE214DF22920DC
:1031500002F080FB02214DF22A2002F07BFBF221DB
:103160004DF22B2002F076FB02214DF22C2002F0D2
:1031700071FBFE214DF22D2002F06CFB03214DF27C
:103180002E2002F067FB10214DF22F2002F062FB8F
:1031900003214DF2302002F05DFB33214DF231204E
:1031A00002F058FB03214DF2322002F053FB6D2157
:1031B0004DF2332002F04EFB00214FF4534002F059
:1031C00049FB33214DF2013002F044FB00214DF266
:1031D000023002F03FFB34214DF2033002F03AFBA3
:1031E00000214DF2043002F035FB3A214DF205305A
:1031F00002F030FB00214DF2063002F02BFB4A2199
:103200004DF2073002F026FB00214DF2083002F0AB
:1032100021FB5C214DF2093002F01CFB00214DF234
:103220000A3002F017FB81214DF20B3002F012FB45
:1032300000214DF20C3002F00DFBA6214DF20D30B5
:1032400002F008FB00214DF20E3002F003FBE521F5
:103250004DF20F3002F0FEFA01214DF2103002F073
:10326000F9FA13214DF2113002F0F4FA01214DF276
:10327000123002F0EFFA54214DF2133002F0EAFA64
:1032800001214DF2143002F0E5FA82214DF21530A1
:1032900002F0E0FA01214DF2163002F0DBFACA2109
:1032A0004DF2173002F0D6FA02214DF2183002F03A
:1032B000D1FA00214DF2193002F0CCFA02214DF280
:1032C0001A3002F0C7FA01214DF21B3002F0C2FAA7
:1032D00002214DF21C3002F0BDFA34214DF21D30B6
:1032E00002F0B8FA02214DF21E3002F0B3FA672163
:1032F0004DF21F3002F0AEFA02214DF2203002F002
:10330000A9FA84214DF2213002F0A4FA02214DF2F3
:10331000223002F09FFAA4214DF2233002F09AFAF3
:1033200002214DF2243002F095FAB7214DF22530FA
:1033300002F090FA02214DF2263002F08BFACF21F2
:103340004DF2273002F086FA02214DF2283002F0C9
:1033500081FADE214DF2293002F07CFA02214DF291
:103360002A3002F077FAF2214DF22B3002F072FA95
:1033700002214DF22C3002F06DFAFE214DF22D307B
:1033800002F068FA03214DF22E3002F063FA1021A8
:103390004DF22F3002F05EFA03214DF2303002F090
:1033A00059FA33214DF2313002F054FA03214DF233
:1033B000323002F04FFA6D214DF2333002F04AFA0A
:1033C00000214FF4544002F045FA33214DF2014000
:1033D00002F040FA00214DF2024002F03BFA3421A3
:1033E0004DF2034002F036FA00214DF2044002F0A3
:1033F00031FA3A214DF2054002F02CFA00214DF24B
:10340000064002F027FA4A214DF2074002F022FA64
:1034100000214DF2084002F01DFA5C214DF20940F6
:1034200002F018FA00214DF20A4002F013FA81214D
:103430004DF20B4002F00EFA00214DF20C4002F06A
:1034400009FAA6214DF20D4002F004FA00214DF2D6
:103450000E4002F0FFF9E5214DF20F4002F0FAF9BB
:1034600001214DF2104002F0F5F913214DF2114007
:1034700002F0F0F901214DF2124002F0EBF9542173
:103480004DF2134002F0E6F901214DF2144002F032
:10349000E1F982214DF2154002F0DCF901214DF2F3
:1034A000164002F0D7F9CA214DF2174002F0D2F9C6
:1034B00002214DF2184002F0CDF900214DF21940E1
:1034C00002F0C8F902214DF21A4002F0C3F90121BD
:1034D0004DF21B4000E006E302F0BCF902214DF280
:1034E0001C4002F0B7F934214DF21D4002F0B2F950
:1034F00002214DF21E4002F0ADF967214DF21F404E
:1035000002F0A8F902214DF2204002F0A3F9842133
:103510004DF2214002F09EF902214DF2224002F0CC
:1035200099F9A4214DF2234002F094F902214DF2C1
:10353000244002F08FF9B7214DF2254002F08AF9BC
:1035400002214DF2264002F085F9CF214DF22740AD
:1035500002F080F902214DF2284002F07BF9DE21D1
:103560004DF2294002F076F902214DF22A4002F094
:1035700071F9F2214DF22B4002F06CF902214DF26B
:103580002C4002F067F9FE214DF22D4002F062F965
:1035900003214DF22E4002F05DF910214DF22F4033
:1035A00002F058F903214DF2304002F053F9332173
:1035B0004DF2314002F04EF903214DF2324002F05B
:1035C00049F96D214DF2334002F044F900214FF4E6
:1035D000554002F03FF933214DF2015002F03AF923
:1035E00000214DF2025002F035F934214DF2035022
:1035F00002F030F900214DF2045002F02BF93A218B
:103600004DF2055002F026F900214DF2065002F06D
:1036100021F94A214DF2075002F01CF900214DF228
:10362000085002F017F95C214DF2095002F012F92E
:1036300000214DF20A5002F00DF981214DF20B509C
:1036400002F008F900214DF20C5002F003F9A62116
:103650004DF20D5002F0FEF800214DF20E5002F036
:10366000F9F8E5214DF20F5002F0F4F801214DF286
:10367000105002F0EFF813214DF2115002F0EAF869
:1036800001214DF2125002F0E5F854214DF2135091
:1036900002F0E0F801214DF2145002F0DBF8822133
:1036A0004DF2155002F0D6F801214DF2165002F0FD
:1036B000D1F8CA214DF2175002F0CCF802214DF298
:1036C000185002F0C7F800214DF2195002F0C2F86C
:1036D00002214DF21A5002F0BDF801214DF21B50AB
:1036E00002F0B8F802214DF21C5002F0B3F8342178
:1036F0004DF21D5002F0AEF802214DF21E5002F0C4
:10370000A9F867214DF21F5002F0A4F802214DF2F2
:10371000205002F09FF884214DF2215002F09AF8D7
:1037200002214DF2225002F095F8A4214DF22350CF
:1037300002F090F802214DF2245002F08BF8B721EC
:103740004DF2255002F086F802214DF2265002F08B
:1037500081F8CF214DF2275002F07CF802214DF282
:10376000285002F077F8DE214DF2295002F072F86D
:1037700002214DF22A5002F06DF8F2214DF22B5049
:1037800002F068F802214DF22C5002F063F8FE219D
:103790004DF22D5002F05EF803214DF22E5002F052
:1037A00059F810214DF22F5002F054F803214DF238
:1037B000305002F04FF833214DF2315002F04AF808
:1037C00003214DF2325002F045F86D214DF2335095
:1037D00002F040F800214FF4564002F03BF833214C
:1037E0004DF2016002F036F800214DF2026002F065
:1037F00031F834214DF2036002F02CF800214DF233
:10380000046002F027F83A214DF2056002F022F838
:1038100000214DF2066002F01DF84A214DF20760CA
:1038200002F018F800214DF2086002F013F85C2154
:103830004DF2096002F00EF800214DF20A6002F02C
:1038400009F881214DF20B6002F004F800214DF2DD
:103850000C6001F0FFFFA6214DF20D6001F0FAFFB0
:1038600000214DF20E6001F0F5FFE5214DF20F60F1
:1038700001F0F0FF01214DF2106001F0EBFF132188
:103880004DF2116001F0E6FF01214DF2126001F0EE
:10389000E1FF54214DF2136001F0DCFF01214DF2F4
:1038A000146001F0D7FF82214DF2156001F0D2FFC4
:1038B00001214DF2166001F0CDFFCA214DF21760D3
:1038C00001F0C8FF02214DF2186001F0C3FF002192
:1038D0004DF2196001F0BEFF02214DF21A6001F0B5
:1038E000B9FF01214DF21B6001F0B4FF02214DF23E
:1038F0001C6001F0AFFF34214DF21D6001F0AAFF02
:1039000002214DF21E6001F0A5FF67214DF21F60FC
:1039100001F0A0FF02214DF2206001F09BFF842105
:103920004DF2216001F096FF02214DF2226001F07C
:1039300091FFA4214DF2236001F08CFF02214DF292
:10394000246001F087FFB7214DF2256001F082FF6E
:1039500002214DF2266001F07DFFCF214DF227605C
:1039600001F078FF02214DF2286001F073FFDE21A3
:103970004DF2296001F06EFF02214DF22A6001F044
:1039800069FFF2214DF22B6001F064FF02214DF23C
:103990002C6001F05FFFFE214DF22D6001F05AFF17
:1039A00003214DF22E6001F055FF10214DF22F60E2
:1039B00001F050FF03214DF2306001F04BFF332145
:1039C0004DF2316001F046FF03214DF2326001F00B
:1039D00041FF6D214DF2336001F03CFF55214FF462
:1039E000704001F037FFAA214FF2010001F032FFD1
:1039F00052214FF2020001F02DFF08214FF2030087
:103A000001F028FF00214FF2040001F023FFCC2138
:103A10004FF4314001F01EFF00214BF2011001F084
:103A200019FF05214FF4364001F014FF70214FF4C7
:103A3000374001F00FFF70214BF2017001F00AFFD7
:103A400001214FF4384001F005FF03214BF601003E
:103A500001F000FF03214BF6020001F0FBFE032101
:103A60004BF6030001F0F6FE02214FF43C4001F05A
:103A7000F1FE00214BF6014001F0ECFE00214BF677
:103A8000024001F0E7FED0214FF4494001F0E2FE90
:103A900002214CF6011001F0DDFE50214CF602101F
:103AA00001F0D8FE50214CF6031001F0D3FE502156
:103AB0004CF6041001F0CEFE00214FF4545001F0FA
:103AC000C9FE55214FF4685001F0C4FE4FF48850F0
:103AD00001F0B0FE782004F0F7FA4FF4245001F022
:103AE000A9FE01F05EB9FE48808849F2253188427E
:103AF0007ED147F6F001E52001F0ACFE4FF4807175
:103B0000012001F0A7FE4FF4E061022001F0A2FEC7
:103B100041F23001032001F09DFE0021042001F05C
:103B200099FE40F20221082001F094FE00210920B4
:103B300001F090FE00210A2001F08CFE00210C20F3
:103B400001F088FE00210D2001F084FE00210F20ED
:103B500001F080FE0021102001F07CFE07211120E1
:103B600001F078FE0021122001F074FE00211320E4
:103B700001F070FE0021072001F06CFE41F290611F
:103B8000102001F067FE40F22721112001F062FEB3
:103B90009D21122001F05EFE4FF4C851132001F068
:103BA00059FE2521292001F055FE0D212B2001F081
:103BB00051FE0721302001F04DFE40F2033131204B
:103BC00001F048FE0321322001F044FE40F20621BC
:103BD000352001F03FFE0821362001F03BFE40F287
:103BE0000641372001F036FE4FF44171382000E0E5
:103BF00057E001F02FFE0721392001F02BFE40F2A3
:103C000002613C2001F026FE08213D2001F022FE49
:103C10000021502001F01EFEEF21512001F01AFE7C
:103C20000021522001F016FE40F23F11532001F016
:103C300011FE4FF42741602001F00CFE01216120AC
:103C400001F008FE00216A2001F004FE002180201E
:103C500001F000FE0021812001F0FCFD0021822006
:103C600001F0F8FD0021832001F0F4FD0021842003
:103C700001F0F0FD0021852001F0ECFD10219020E5
:103C800001F0E8FD4FF4C061922001F0E3FD40F245
:103C90003311072001F0DEFD2221002001F0DAFDC2
:103CA0001FE78F48808849F2283188427ED141F24F
:103CB0008F01EC2001F0CEFD41F23421EF2001F024
:103CC000C9FD4FF48071012001F0C4FD4FF4E061A3
:103CD000022001F0BFFD41F23001032001F0BAFDE6
:103CE0000021042001F0B6FD40F20221082001F07D
:103CF000B1FD0021092001F0ADFD00210A2001F0F5
:103D0000A9FD01210C2001F0A5FD00210D2001F0ED
:103D1000A1FD00210F2001F09DFD0021102001F0E8
:103D200099FD0721112001F095FD0021122001F0DD
:103D300091FD0021132001F08DFD0121072001F0EC
:103D400089FD322004F08AF941F29041102001F0FF
:103D500081FD40F22721112001F07CFD322004F08A
:103D60007DF98A21122001F075FD322004F076F9E8
:103D70004FF4D051132001F06DFD0621292001F0F0
:103D800069FD0D212B2001F065FD322004F066F95C
:103D90000021202001F05EFD0021212001F05AFDCC
:103DA000322004F05BF90021302000E074E001F0E3
:103DB00051FD40F20461312001F04CFD40F205312B
:103DC000322001F047FD0021352001F043FD40F68F
:103DD0000941362001F03EFD4FF40171372001F01A
:103DE00039FD40F20131382001F034FD40F2077115
:103DF000392001F02FFD00213C2001F02BFD40F681
:103E00000A213D2001F026FD322004F027F900218F
:103E1000502001F01FFDEF21512001F01BFD00217A
:103E2000522001F017FD40F23F11532001F012FD26
:103E30004FF42741602001F00DFD0121612001F0C8
:103E400009FD00216A2001F005FD0021802001F01C
:103E500001FD0021812001F0FDFC0021822001F004
:103E6000F9FC0021832001F0F5FC0021842001F001
:103E7000F1FC0021852001F0EDFC1021902001F0E3
:103E8000E9FC4FF4C061922001F0E4FC40F23311F0
:103E9000072001F0DFFC24E61148808849F2203138
:103EA00088427DD10021084601F0D4FC4FF4807196
:103EB000012001F0CFFC4FF4E061022001F0CAFCC8
:103EC00041F23001032001F0C5FC0021042001F083
:103ED000C1FC40F20221082001F0BCFC002101E0FD
:103EE000D2060020092001F0B5FC00210A2001F0D3
:103EF000B1FC01210C2001F0ADFC00210D2001F0EE
:103F0000A9FC00210F2001F0A5FC322004F0A6F846
:103F100040F20111072001F09DFC322004F09EF8D0
:103F20004FF48651102001F095FC0721112001F07B
:103F300091FC4FF48871122001F08CFC4FF4306139
:103F4000132001F087FC0021292001F083FC44F2BA
:103F500010012B2001F07EFC0021502001F07AFCA2
:103F6000EF21512001F076FC0021522001F072FC7B
:103F700040F23F11532001F06DFC4FF41C516020C2
:103F800001F068FC0121612001F064FC00216A203D
:103F900001F060FC0021802001F05CFC002100E0C9
:103FA00031E0812001F056FC0021822001F052FC1A
:103FB0000021832001F04EFC0021842001F04AFC06
:103FC0000021852001F046FC1021902001F042FCE8
:103FD0000021922001F03EFC0121932001F03AFCE7
:103FE0004FF48871952001F035FC0021972001F0F5
:103FF00031FC0021982001F02DFC40F273110720C4
:1040000001F028FC6DE5FE48808849F23131884294
:104010007DD141F21401E72001F01CFC4FF48071C6
:10402000012001F017FC4FF40071022001F012FC96
:1040300041F23801032001F00DFC40F2022108207A
:1040400001F008FC0021092001F004FC00210A20F5
:1040500001F000FC00210C2001F0FCFB00210D20F0
:1040600001F0F8FB00210F2001F0F4FB00211020EB
:1040700001F0F0FB0721112001F0ECFB00211220E0
:1040800001F0E8FB0021132001F0E4FBC82003F05D
:10409000E5FF41F29061102001F0DCFB40F22721A6
:1040A000112001F0D7FB322003F0D8FF0C211220A1
:1040B00001F0D0FB322003F0D1FF4FF40061132058
:1040C00001F0C8FB1121292001F0C4FB0B212B209A
:1040D00001F0C0FB322003F0C1FF0021202001F0DD
:1040E000B9FB40F23F11212001F0B4FB0021302048
:1040F00001F0B0FB4FF48371312001F0ABFB0021E4
:10410000322001F0A7FB4FF40171352000E064E09C
:1041100001F0A0FB41F20A61362001F09BFB40F266
:104120000771372001F096FB4FF48371382001F0BE
:1041300091FB40F20771392001F08CFB40F2024103
:104140003C2001F087FB40F60F413D2001F082FB4F
:104150000021502001F07EFBEF21512001F07AFB7D
:104160000021522001F076FB40F23F11532001F074
:1041700071FB4FF41C51602001F06CFB01216120A8
:1041800001F068FB00216A2001F064FB002180201F
:1041900001F060FB0021812001F05CFB0021822006
:1041A00001F058FB0021832001F054FB0021842002
:1041B00001F050FB0021852001F04CFB10219020E4
:1041C00001F048FB4FF4C061922001F043FB40F244
:1041D0003311072001F03EFB83E48948808845F2D3
:1041E000084188427ED14FF48071012001F032FBFA
:1041F0004FF4E061022001F02DFB41F23001032079
:1042000001F028FB0021042001F024FB40F20721EB
:10421000082001F01FFB0021092001F01BFB0021F9
:104220000A2001F017FB00210C2001F013FB0021F4
:104230000D2001F00FFB00210F2001F00BFB1420DB
:1042400003F00CFF41F2B061102001F003FB0121EB
:10425000112001F0FFFA0121172001F0FBFA4FF4C1
:104260009C71122001F0F6FA4FF40061132001F066
:10427000F1FA0921292001F0EDFA09212A2001F0A3
:10428000E9FA0021A42001F0E5FA0021502001F014
:10429000E1FAEF21512001F0DDFA0021522001F076
:1042A000D9FA40F23F11532001F0D4FA4FF41C51D7
:1042B000602001F0CFFA0121612001F0CBFA00214A
:1042C0006A2001F0C7FA0021802001F0C3FA002122
:1042D000812001F0BFFA0021822001F0BBFA002109
:1042E000832000E023E001F0B5FA0021842001F0F2
:1042F000B1FA0021852001F0ADFA1321902001F0E0
:10430000A9FA0021922001F0A5FA0321932001F0DF
:10431000A1FA4FF48871952001F09CFA40F27311D4
:10432000072001F097FA322003F098FEB8E43448F1
:10433000808841F2055188427ED10021072001F09A
:1043400089FA322003F08AFE4FF48E71122001F0B8
:1043500081FA0121A42001F07DFA0F21082001F04B
:1043600079FA08210A2001F075FA08210D2001F0E0
:1043700071FA40F20771302001F06CFA0721312008
:1043800001F068FA40F20361322001F063FA4FF461
:10439000E061332001F05EFA40F20221342001F0A6
:1043A00059FA0221352001F055FA41F60F713620F5
:1043B00001F050FA40F20771372001F04BFA00216A
:1043C000382001F047FA0021392001F043FA40F289
:1043D00007713A2001F03EFA00213B2001F03AFA41
:1043E00007213C2001F036FA00213D2001F032FA8D
:1043F000322003F033FE0121072001F02BFA01E007
:10440000D20600200121172001F024FA322003F007
:1044100025FE4FF4BD51102001F01CFA40F2172187
:10442000112001F017FA4FF48F71122001F012FAE7
:104430004FF47061132000E097E001F00BFA0021C7
:104440002A2001F007FA0A21292001F003FA4FF48B
:104450009F71122001F0FEF90021502001F0FAF9BD
:10446000EF21512001F0F6F90021522001F0F2F97C
:1044700040F23F11532001F0EDF94FF41C51602040
:1044800001F0E8F90121612001F0E4F900216A203E
:1044900001F0E0F90021802001F0DCF90021812009
:1044A00001F0D8F90021822001F0D4F90021832005
:1044B00001F0D0F90021842001F0CCF90021852001
:1044C00001F0C8F91321902001F0C4F94FF44071B4
:1044D000922001F0BFF90521932001F0BBF90021E2
:1044E000952001F0B7F90021972001F0B3F90021E0
:1044F000982001F0AFF94FF48071012001F0AAF982
:104500004FF4E061022001F0A5F941F238010320E7
:1045100001F0A0F90021042001F09CF900210C20F9
:1045200001F098F900210F2001F094F900212020DA
:1045300001F090F90021212001F08CF921210720C0
:1045400001F088F9142003F089FD6121072001F0B2
:1045500081F9142003F082FD40F27311072001F06D
:1045600079F9142003F07AFD95E4FE4880884BF237
:10457000055188427ED10021084601F06BF90021E7
:10458000084601F067F90021084601F063F90021AF
:10459000084601F05FF90121A42001F05BF9142025
:1045A00003F05CFD4FF41C51602001F053F940F220
:1045B0000221082001F04EF94FF40571302001F07E
:1045C00049F943F21571312001F044F940F20461D8
:1045D000322001F03FF940F61661332001F03AF93C
:1045E00042F21121342001F035F94FF4A851352061
:1045F00001F030F948F20751362001F02BF941F271
:104600000741372001F026F941F20341382001F03B
:1046100021F92021392001F01DF91A21902001F003
:1046200019F90021102001F015F90721112001F0DE
:1046300011F90021122001F00DF90021132001F0E1
:1046400009F9142003F00AFD4FF4E661102001F08F
:1046500001F940F23711112001F0FCF8142003F0A9
:10466000FDFC4FF4DC71122001F0F4F8142003F08B
:10467000F5FC00E083E04FF47061132001F0EAF8EC
:1046800080212A2001F0E6F84821292001F0E2F8F3
:10469000142003F0E3FC4FF48071012001F0DAF8FC
:1046A0004FF4E061022001F0D5F841F23801032017
:1046B00001F0D0F840F20221082001F0CBF80021EF
:1046C0000A2001F0C7F800210C2001F0C3F80021F6
:1046D0000D2001F0BFF830210E2001F0BBF80021C1
:1046E000502001F0B7F8EF21512001F0B3F800217C
:1046F000522001F0AFF840F23F11532001F0AAF828
:104700004FF41C51602001F0A5F80121612001F057
:10471000A1F800216A2001F09DF81121902001F0FC
:1047200099F84FF4C061922001F094F840F20241F0
:10473000932001F08FF80221942001F08BF81420CF
:1047400003F08CFC0121072001F084F8142003F011
:1047500085FC6121072001F07DF840F273110720EC
:1047600001F078F80021202001F074F800212120C8
:1047700001F070F82221002001F06CF811E3794873
:1047800080884CF2055188427ED10021084601F014
:1047900061F80021084601F05DF8142003F05EFC8A
:1047A0000021084601F056F80021084601F052F8B1
:1047B0000021084601F04EF80021084601F04AF8B1
:1047C0000121A42001F046F8142003F047FC4FF427
:1047D0001C51602001F03EF840F60601082001F06F
:1047E00039F840F20371302001F034F80121312012
:1047F00001F030F80421322001F02CF84FF48171DF
:10480000332001F027F84FF44071342001F022F8F2
:1048100040F20311352001F01DF81F21362001F070
:1048200019F840F20371372001F014F80121382003
:1048300001F010F80421392001F00CF81521902026
:1048400001F008F84FF48261102001F003F840F203
:104850004721112000F0FEFF4FF4DE71122000F01E
:10486000F9FF4FF46061132000F0F4FF782003F0AB
:10487000F5FB4FF48071012000F0ECFF4FF4007164
:10488000022000F0E7FF00E050E041F23001032099
:1048900000F0E0FF08210A2000F0DCFF00210C20DE
:1048A00000F0D8FF20210E2000F0D4FF00210F20BF
:1048B00000F0D0FF0021202000F0CCFF00212120BB
:1048C00000F0C8FF3D212A2000F0C4FF142003F0AF
:1048D000C5FB2D21292000F0BDFF0021502000F054
:1048E000B9FF4DF2EF01512000F0B4FF002152203A
:1048F00000F0B0FF40F23F11532000F0ABFF002169
:10490000612000F0A7FF00216A2000F0A3FF4FF410
:104910004071922000F09EFF0521932000F09AFF45
:104920004FF48071072000F095FF3AE20D4880882F
:1049300044F2315188427CD10121002000F08AFFED
:104940000A2003F08BFB41F22861102000F082FF67
:104950000E21122000F07EFF40F63921132000F0D6
:1049600079FF01E0D20600200A2003F077FB402106
:10497000112000F06FFF5021152000F06BFF0A207E
:1049800003F06CFB1E21122000F064FF0A2003F0EC
:1049900065FB4FF4B151102000F05CFF42F6392165
:1049A000132000F057FF0A2003F058FB4FF48071EA
:1049B000012000F04FFF4FF44071022000F04AFF49
:1049C00041F23801032000F045FF40F202210820A7
:1049D00000F040FF08210A2000F03CFF00213020B9
:1049E00000F038FF40F20241312000F033FF4FF475
:1049F0008371322000F02EFF40F20351332000F08B
:104A000029FF4FF48271342000F024FF40F201317D
:104A1000352000F01FFF40F20771362000F01AFF2A
:104A200040F20531372000F015FF4FF402713820B5
:104A300000E040E000F00EFF40F60B71392000F07E
:104A400009FF0221412000F005FF4FF41C516020B6
:104A500000F000FF0121612000F0FCFE4FF4047122
:104A6000902000F0F7FE4FF48571922000F0F2FEE6
:104A70000421932000F0EEFE4FF48071A02000F09E
:104A8000E9FE0121072000F0E5FE2121072000F0CA
:104A9000E1FE2321072000F0DDFE3321072000F096
:104AA000D9FE40F23311072000F0D4FE0021A020EF
:104AB00000F0D0FE75E1C148808844F2355188424B
:104AC0007ED13021152000F0C5FE10219A2000F083
:104AD000C1FE2021112000F0BDFE43F2284110202C
:104AE00000F0B8FE0221122000F0B4FE41F23801BD
:104AF000132000F0AFFE282003F0B0FA1221084680
:104B000000F0A8FE282003F0A9FA43F2204110206B
:104B100000F0A0FE43F23801132000F09BFE462077
:104B200003F09CFA0021302000F094FE40F2024194
:104B3000312000F08FFE40F20731322000F08AFE73
:104B40004FF44171332000F085FE0421342000F041
:104B500081FE40F20141352000F07CFE40F20771F9
:104B6000362000F077FE40F20531372000F072FE6B
:104B70004FF4C261382000F06DFE4FF4C26139205D
:104B800000F068FE4FF48071012000F063FE4FF4E6
:104B90004071022000F05EFE41F23001032000F07F
:104BA00059FE40F60801082000F054FE08210A20B2
:104BB00000F050FE4FF41C51602000F04BFE00E06E
:104BC00031E00121612000F045FE4FF49F719020FB
:104BD00000F040FE4FF48071922000F03BFE4FF455
:104BE0008071932000F036FE4FF44051A02000F079
:104BF00031FE1021A32000F02DFE0121072000F03E
:104C000029FE2121072000F025FE2321072000F0A6
:104C100021FE3321072000F01DFE40F23311072052
:104C200000F018FEBDE06548808841F663118842B7
:104C3000F8D1E22000F0FEFD1D2000F0F5FD02207D
:104C400000F0F2FD042000F0EFFD642003F03CFAD8
:104C5000E02000F0EFFD012000F0E6FD0A2003F067
:104C6000FDF9E02000F0E6FD032000F0DDFD0C2062
:104C700003F0F4F9012000F0DDFD0A2003F0EEF965
:104C8000E62000F0D7FD2F2000F0CEFDFF2000F041
:104C9000CBFDFF2000F0C8FDB02000F0CBFD2020B0
:104CA00000F0C2FD002000F0BFFD032000F0BCFDBD
:104CB00040F21F3000F0B8FD012000F0B5FD40F2D9
:104CC000DF1000F0B1FD002000F0AEFDB42000F0D8
:104CD000B1FD042000F0A8FD40F21F4000F0A4FD4B
:104CE000002000F0A1FD2E2000F09EFD002000F02D
:104CF0009BFD002000F098FD002000F095FD0020B5
:104D000000F092FDB62000F095FD022000F08CFD31
:104D10004FF4037000F088FD002000F085FD17209F
:104D200000F082FD152000F07FFD002000F07CFDEA
:104D3000002000F079FDF02000F07CFD032000F061
:104D400073FD292000F076FDD02000F073FD0020D7
:104D500000F06AFDBE2000F06DFD052000F064FD4E
:104D6000FE2000F061FD012000F05EFD002000F05B
:104D70005BFD002000F058FD002000F055FDB8203C
:104D800000F058FD032000F04FFD012000F04CFD25
:104D9000BA2000F04FFD012000F046FD642000F035
:104DA00033F80020FCF700FA0120054908604FF6AF
:104DB000FF70FCF7FFF81FB000BD0000D206002016
:104DC0008081214210B50246012000E050430B1EB5
:104DD000A1F10104E1B2F9D110BD000008B503480A
:104DE00000880090BDF8000008BD00000008006CBD
:104DF00010B50446204600F01DFD052003F064F9BF
:104E0000FFF7ECFF10BD00002DE9F0470446BE207F
:104E100000F010FD052000F007FD204603F0A6FD80
:104E200007464FF066320C4B03F0F0FD054603F0E9
:104E300059FD1FFA80F9484600F0F6FC012000F009
:104E4000F3FCFF2000F0F0FC002000F0EDFC00205F
:104E500000F0EAFCBDE8F0876666044008B51B4830
:104E6000007870B10020194908704FF6FF704FF4B8
:104E70007843012240F262210090202000F094FC4F
:104E800023E002F0F1FB1249097888421DD002F0BC
:104E9000EBFB58B14FF6FF704FF4FC63002240F279
:104EA00062210090202000F07FFC0AE04FF6FF70A6
:104EB0004FF47843002240F262210090202000F05D
:104EC00073FC02F0D1FB0249087008BD31000020DC
:104ED0003200002010B58848007890B30020864941
:104EE00008701F208549088000230A224FF42F7183
:104EF000502000F0A3FB00230A224FF42F71E02082
:104F000000F09CFB012300224FF42F71202000F0C1
:104F10001AFC022300224FF42F71802000F013FCB2
:104F2000022300224FF42F714FF4887000F00BFC25
:104F30000223002240F2C5214FF4B87000F0D2FBEA
:104F4000D9E0FFE702F08AFB6D4908606D48006810
:104F50000A21B0FBF1F06A4909680A22B1FBF2F1BB
:104F60008842EDD01F2065490880664800684FF4EC
:104F70007A71B0FBF1F04FF46161B0FBF1F00A21FE
:104F8000B0FBF1F201FB12005D4909684FF47A723F
:104F9000B1FBF2F14FF46162B1FBF2F10A22B1FB15
:104FA000F2F302FB1311884215D002F057FB4FF4C5
:104FB0007A71B0FBF1F04FF46161B0FBF1F00A21BE
:104FC000B0FBF1F201FB1204012322464FF42F71D2
:104FD000202000F0B8FB4B4800684FF47A71B0FB1A
:104FE000F1F04FF46161B0FBF1F201FB12003C21E2
:104FF000B0FBF1F0424909684FF47A72B1FBF2F16B
:105000004FF46162B1FBF2F302FB13113C22B1FBDE
:10501000F2F1884215D002F021FB4FF47A71B0FB17
:10502000F1F04FF46161B0FBF1F201FB12003C21A1
:10503000B0FBF1F4022322464FF42F71802000F0E0
:1050400082FB304800684FF47A71B0FBF1F03C21EC
:10505000B0FBF1F201FB1200294909684FF47A72A2
:10506000B1FBF2F13C22B1FBF2F302FB13118842D7
:1050700012D002F0F3FA4FF47A71B0FBF1F03C2158
:10508000B0FBF1F201FB1204022322464FF42F7110
:105090004FF4887000F057FB1A4800684FF47A719B
:1050A000B0FBF1F201FB12000A21B0FBF1F0144950
:1050B00009684FF47A72B1FBF2F302FB13110A2272
:1050C000B1FBF2F1884212D002F0C8FA4FF47A71C3
:1050D000B0FBF1F201FB12000A21B0FBF1F4022354
:1050E000224640F2C5214FF4B87000F0FBFA0448A4
:1050F00000680449086010BD330000205200002001
:10510000380000203400002070B50446002300263B
:10511000B748807901280BD1B548808846F604014C
:10512000884205D0B248808841F66311884208D190
:10513000AF488079F0B9AE48808841F66311884263
:1051400018D1082C15D2DFE804F00406080A0C0E6A
:10515000101206240DE007240BE0042409E00524C6
:1051600007E0012405E0002403E0032401E0022419
:1051700000BF00BF9E48808849F24131884217D065
:105180009B48808846F60401884211D09848808860
:1051900045F2103188420BD09548808845F2105175
:1051A000884205D09248808841F6631188427DD1BB
:1051B000082C1CD2DFE804F00406090C0F121518A5
:1051C00000BF14E043F0800311E043F040030EE021
:1051D00043F0C0030BE043F0200308E043F060031A
:1051E00005E043F0A00302E043F0E00300BF00BF8E
:1051F0007F48808845F21051884202D14FF45856BA
:1052000000E036267A48808845F2103188420DD079
:105210007748808845F21051884207D074488088CA
:1052200041F66311884201D043F00803704880883A
:1052300046F60401884201D143F002031946304684
:1052400000F008FB6A48808841F6631188421DD04F
:1052500003F0200068B166480088654949888842A3
:1052600014DA63480588408861490880084645800B
:105270000CE05F4800885E494988884206DD5C484A
:10528000058840885A4908800846458058488088E3
:1052900045F21051884254D15549488900F0CAFA64
:1052A000002000F0C1FA5249498900E078E0491C29
:1052B00088B200F0BFFA002000F0B6FA4C494989E4
:1052C000891C88B200F0B6FA49490988491EC1F321
:1052D0000F2000F0A9FA46494989C91C88B200F09C
:1052E000A9FA43490978491EC8B200F09DFA40491D
:1052F000888900F09FFA002000F096FA3C498989DD
:10530000491C88B200F096FA002000F08DFA384966
:105310008989891C88B200F08DFA35494988491E6F
:10532000C1F30F2000F080FA31498989C91C88B285
:1053300000F080FA2E498978491EC8B200F074FA4C
:1053400055E02B49488900F075FA002000F06CFA0E
:10535000002000F069FA26490988491EC1F30F2090
:1053600000F062FA22490978491EC8B200F05CFADE
:105370001F49888900F05EFA002000F055FA0020ED
:1053800000F052FA1A494988491EC1F30F2000F073
:105390004BFA17498978491EC8B200F045FA26E051
:1053A000082C1CD2DFE804F004070A0D0F121518B0
:1053B00043F0300313E043F0100310E043F0200308
:1053C0000DE000BF0BE043F0380308E043F0280392
:1053D00005E043F0180302E043F0080300BF00BFFC
:1053E000032643F480531946304600F033FA70BD6B
:1053F000D206002010B503460C466748808849F263
:105400004131884205D06448808845F21031884295
:1054100014D16149488900F00DFA181200F004FA1D
:10542000D8B200F001FA5C49888900F003FA201232
:1054300000F0FAF9E0B200F0F7F9ABE056488088E6
:1054400046F6040188421DD153488079012804D1D1
:1054500051480088401EC01A83B24F49488900F065
:10546000E9F9181200F0E0F9D8B200F0DDF94A4984
:10547000888900F0DFF9201200F0D6F9E0B200F0E0
:10548000D3F987E04448808841F66311884247D1C8
:1054900041488079A8B940480088401EC01A83B2AC
:1054A0003D49488900F0C6F9002000F0BDF9002010
:1054B00000F0BAF9181200F0B7F9D8B200F0B4F958
:1054C00016E03549488900F0B5F9181200F0ACF93A
:1054D000D8B200F0A9F930490988491EC1F30F205C
:1054E00000F0A2F92C490978491EC8B200F09CF9D5
:1054F0002949888900F09EF9201200F095F9E0B260
:1055000000F092F924494988491EC1F30F2000F0A8
:105510008BF921498978491EC8B200F085F939E034
:105520001D48808845F21051884220D11A49488987
:1055300000F080F9181200F077F917494989491CE1
:1055400088B200F077F9D8B200F06EF91249888974
:1055500000F070F9201200F067F90F498989491CA1
:1055600088B200F067F9E0B200F05EF912E00A4894
:105570008079012804D108480088401EC01A83B2EF
:1055800005494889194600F065F90349888921468B
:1055900000F060F910BD0000D20600202DE9F84FA0
:1055A0000446884615469946009405EB45000701D8
:1055B00034E0002629E01E4800EB870010F806A022
:1055C0004FF0000B1CE00AF0800030B1194802884F
:1055D00041462046FBF77EFF08E0B9F1000F05D1F8
:1055E0001548028841462046FBF774FF4FEA4A609F
:1055F0004FEA106A601C84B20BF1010000F0FF0B4F
:10560000BBF1080FDFDB701C86B2042ED3DB009CDD
:1056100008F101001FFA80F8781C87B205EB4500FD
:10562000302101EB0010B842C3DCBDE8F88F000068
:1056300040B6000852000020540000202DE9F84F29
:1056400004468846154699460094362005FB00F727
:1056500036E000262BE007EB47001F4901EB400036
:1056600010F806A04FF0000B1CE00AF0800030B1EB
:105670001A48028841462046FBF72CFF08E0B9F1A2
:10568000000F05D11648028841462046FBF722FF4D
:105690004FEA4A604FEA106A601C84B20BF10100C5
:1056A00000F0FF0BBBF1080FDFDB701C86B2062E8B
:1056B000D1DB009C08F101001FFA80F8781C87B24A
:1056C00005EBC50000EB4000362101EB4000B8427D
:1056D000BFDCBDE8F88F000010A7000852000020D2
:1056E000540000202DE9F0470746894690461D46A4
:1056F0004FF0010A002422E0281B401EC1B20A20FC
:10570000FFF760FBB8FBF0F00A21B0FBF1F201FB00
:105710001206BAF1000F06D1681EA04203DD06B9D9
:105720000BE04FF0010A202101FB047188B2002335
:1057300032464946FFF732FF00BF601CC4B2AC429C
:10574000DADBBDE8F0872DE9F04707468946904649
:105750001D464FF0010A002422E0281B401EC1B262
:105760000A20FFF72FFBB8FBF0F00A21B0FBF1F2A3
:1057700001FB1206BAF1000F06D1681EA04203DD3C
:1057800006B90BE04FF0010A302101FB047188B229
:10579000002332464946FFF751FF00BF601CC4B2E8
:1057A000AC42DADBBDE8F0872DE9F84F04460F463E
:1057B000904699460094002630E0002527E01948DD
:1057C00000EBC60010F805A04FF0000B1AE00AF03D
:1057D000800028B14A4639462046FBF77BFE07E0A9
:1057E000B8F1000F04D1394620460A9AFBF772FE41
:1057F0004FEA4A604FEA106A601C84B20BF1010064
:1058000000F0FF0BBBF1080FE1DB681C85B2082D2F
:10581000D5DB009C781C87B2701C86B2402ECCDB96
:10582000BDE8F88F80C1000801490880704700007A
:105830000008006C0149088070470000FE07006CFA
:10584000024800890249088070470000D206002003
:10585000FE07006C024A1080921C11807047000005
:10586000FE07006C08B50121482001F045FA202010
:10587000ADF8000010208DF8030003208DF8020021
:1058800069460948FAF76BFF20210748FAF7FDFF40
:105890002020ADF8000069460448FAF760FF202197
:1058A0000248FAF7F2FF08BD000C01400018014061
:1058B00000BFFEE77047000070B5002100230F22F3
:1058C000C47804B3154C246804F4E064C4F5E064BF
:1058D000210AC1F10403CA40447804FA03F1847830
:1058E0001440214309010E4C0678A155047804F0B8
:1058F0001F050124AC4005786D11AD0005F1E025D0
:10590000C5F8004109E0047804F01F050124AC400B
:10591000044D0678761145F8264070BD0CED00E088
:1059200000E400E080E100E002490143024A116026
:10593000704700000000FA050CED00E010B500F023
:1059400013F800F037FF00F05FFF00F07FFF00F07A
:1059500007FF00F0D9FE01F013F800F0B7FF00F0E8
:10596000DDFF00F002F810BD704770470648007870
:10597000012808D105480078FF2804D203480078A0
:10598000401C024908707047A600002099000020C2
:1059900010B500241A480078012830D1FAF73EFCEF
:1059A00004461848007820B116480078401E154972
:1059B000087014480078F8B913480078E0B901F08D
:1059C00041F812481249097850F82100114908603D
:1059D0000F4800781049097888420DD00D480068BA
:1059E000806B401C0B49096888630C480068401CA8
:1059F0000A490860FAF731FC2046FAF713FC10BD9B
:105A0000A6000020990000209A000020CC0C002065
:105A10009C000020B40000209B000020800000209B
:105A20002DE9F04105460E4600271F48007820B1B9
:105A3000102030700020BDE8F081FAF7EFFB074638
:105A40001A4850F8250030B13846FAF7EBFB282009
:105A500030700020EFE70120144941F82500144878
:105A600004684CB9002041F825003846FAF7DAFB03
:105A7000042030702046DEE70D48006840680C497D
:105A800008603846FAF7CEFB04202070FF2040EA79
:105A90000520208100206060204600F027FE0020C5
:105AA00030702046C7E7000099000020CC0C002091
:105AB000840000202DE9F74F82B0054617460020EC
:105AC00001902878042804D00120387005B0BDE882
:105AD000F08F8048007810B102203870F6E77E48D9
